{
  "contractName": "Cointoss",
  "abi": [
    {
      "inputs": [],
      "stateMutability": "nonpayable",
      "type": "constructor"
    },
    {
      "anonymous": false,
      "inputs": [
        {
          "indexed": false,
          "internalType": "address",
          "name": "player",
          "type": "address"
        },
        {
          "indexed": false,
          "internalType": "uint256",
          "name": "amount",
          "type": "uint256"
        }
      ],
      "name": "ClaimCollateral",
      "type": "event"
    },
    {
      "anonymous": false,
      "inputs": [
        {
          "indexed": false,
          "internalType": "address",
          "name": "player",
          "type": "address"
        },
        {
          "indexed": false,
          "internalType": "uint256",
          "name": "amount",
          "type": "uint256"
        },
        {
          "indexed": false,
          "internalType": "bool",
          "name": "guess",
          "type": "bool"
        }
      ],
      "name": "InitiateCoinToss",
      "type": "event"
    },
    {
      "anonymous": false,
      "inputs": [
        {
          "indexed": false,
          "internalType": "bytes32",
          "name": "_queryId",
          "type": "bytes32"
        },
        {
          "indexed": false,
          "internalType": "address",
          "name": "_address",
          "type": "address"
        },
        {
          "indexed": false,
          "internalType": "uint256",
          "name": "_value",
          "type": "uint256"
        },
        {
          "indexed": false,
          "internalType": "bool",
          "name": "_guess",
          "type": "bool"
        }
      ],
      "name": "RequestedRandomNumber",
      "type": "event"
    },
    {
      "anonymous": false,
      "inputs": [
        {
          "indexed": false,
          "internalType": "address",
          "name": "player",
          "type": "address"
        },
        {
          "indexed": false,
          "internalType": "bool",
          "name": "win",
          "type": "bool"
        }
      ],
      "name": "ThanksForPlaying",
      "type": "event"
    },
    {
      "inputs": [
        {
          "internalType": "address",
          "name": "",
          "type": "address"
        }
      ],
      "name": "claims",
      "outputs": [
        {
          "internalType": "uint256",
          "name": "",
          "type": "uint256"
        }
      ],
      "stateMutability": "view",
      "type": "function",
      "constant": true
    },
    {
      "inputs": [
        {
          "internalType": "bytes32",
          "name": "requestId",
          "type": "bytes32"
        },
        {
          "internalType": "uint256",
          "name": "randomness",
          "type": "uint256"
        }
      ],
      "name": "rawFulfillRandomness",
      "outputs": [],
      "stateMutability": "nonpayable",
      "type": "function"
    },
    {
      "inputs": [],
      "name": "getPriceBalance",
      "outputs": [
        {
          "internalType": "uint256",
          "name": "",
          "type": "uint256"
        }
      ],
      "stateMutability": "view",
      "type": "function",
      "constant": true
    },
    {
      "inputs": [],
      "name": "claim",
      "outputs": [],
      "stateMutability": "nonpayable",
      "type": "function"
    },
    {
      "inputs": [
        {
          "internalType": "bool",
          "name": "_guess",
          "type": "bool"
        }
      ],
      "name": "flip",
      "outputs": [],
      "stateMutability": "payable",
      "type": "function",
      "payable": true
    },
    {
      "inputs": [],
      "name": "getBalance",
      "outputs": [
        {
          "internalType": "uint256",
          "name": "",
          "type": "uint256"
        }
      ],
      "stateMutability": "view",
      "type": "function",
      "constant": true
    },
    {
      "inputs": [],
      "name": "withdrawAll",
      "outputs": [
        {
          "internalType": "uint256",
          "name": "",
          "type": "uint256"
        }
      ],
      "stateMutability": "nonpayable",
      "type": "function"
    }
  ],
  "bytecode": "0x60c060405234801561001057600080fd5b5073dd3782915140c8f3b190b5d67eac6dc5760c46e973a36085f69e2889c224210f603d836748e7dc0088336000806101000a81548173ffffffffffffffffffffffffffffffffffffffff021916908373ffffffffffffffffffffffffffffffffffffffff1602179055508173ffffffffffffffffffffffffffffffffffffffff1660a08173ffffffffffffffffffffffffffffffffffffffff1660601b815250508073ffffffffffffffffffffffffffffffffffffffff1660808173ffffffffffffffffffffffffffffffffffffffff1660601b8152505050507f6c3699283bda56ad74f6b855546325b68d482e983852a7a82979cc4807b641f460001b60028190555067016345785d8a0000600381905550336000806101000a81548173ffffffffffffffffffffffffffffffffffffffff021916908373ffffffffffffffffffffffffffffffffffffffff160217905550600060048190555060805160601c60a05160601c610f4461019f600039806106975280610b725250806107ca5280610b365250610f446000f3fe6080604052600436106100705760003560e01c8063853828b61161004e578063853828b6146100e757806394985ddd14610112578063c6788bdd14610157578063d2a4d668146101bc57610070565b806312065fe0146100755780631d263f67146100a05780634e71d92d146100d0575b600080fd5b34801561008157600080fd5b5061008a6101e7565b6040518082815260200191505060405180910390f35b6100ce600480360360208110156100b657600080fd5b810190808035151590602001909291905050506101f1565b005b3480156100dc57600080fd5b506100e5610446565b005b3480156100f357600080fd5b506100fc6105d2565b6040518082815260200191505060405180910390f35b34801561011e57600080fd5b506101556004803603604081101561013557600080fd5b810190808035906020019092919080359060200190929190505050610695565b005b34801561016357600080fd5b506101a66004803603602081101561017a57600080fd5b81019080803573ffffffffffffffffffffffffffffffffffffffff169060200190929190505050610764565b6040518082815260200191505060405180910390f35b3480156101c857600080fd5b506101d161077c565b6040518082815260200191505060405180910390f35b6000600454905090565b67016345785d8a000080341015610253576040517f08c379a000000000000000000000000000000000000000000000000000000000815260040180806020018281038252602e815260200180610ee1602e913960400191505060405180910390fd5b7f6f3d7265586e433e390d593e3d2faa711f6c7f85bec0f3ea049cae6493491457333484604051808473ffffffffffffffffffffffffffffffffffffffff1681526020018381526020018215158152602001935050505060405180910390a13460046000828254019250508190555060003373ffffffffffffffffffffffffffffffffffffffff16905060006102e8826107c3565b90506102f2610e4e565b33816000019073ffffffffffffffffffffffffffffffffffffffff16908173ffffffffffffffffffffffffffffffffffffffff16815250503481602001818152505084816040019015159081151581525050806005600084815260200190815260200160002060008201518160000160006101000a81548173ffffffffffffffffffffffffffffffffffffffff021916908373ffffffffffffffffffffffffffffffffffffffff1602179055506020820151816001015560408201518160020160006101000a81548160ff0219169083151502179055509050507f991ab336974dc60ffe64ff8156e7e1e1c1100e7429723961e6eee46bd5afe31382826000015183602001518460400151604051808581526020018473ffffffffffffffffffffffffffffffffffffffff168152602001838152602001821515815260200194505050505060405180910390a15050505050565b6000600660003373ffffffffffffffffffffffffffffffffffffffff1673ffffffffffffffffffffffffffffffffffffffff1681526020019081526020016000205490508060045410156104e5576040517f08c379a000000000000000000000000000000000000000000000000000000000815260040180806020018281038252602e815260200180610e88602e913960400191505060405180910390fd5b80600454036004819055503373ffffffffffffffffffffffffffffffffffffffff166108fc829081150290604051600060405180830381858888f19350505050158015610536573d6000803e3d6000fd5b50600660003373ffffffffffffffffffffffffffffffffffffffff1673ffffffffffffffffffffffffffffffffffffffff168152602001908152602001600020600090557fd802a6fd53751c581663a7ed484571f7fcdf5b473e71ab5d27dccd7e0d7430203382604051808373ffffffffffffffffffffffffffffffffffffffff1681526020018281526020019250505060405180910390a150565b60003373ffffffffffffffffffffffffffffffffffffffff1660008054906101000a900473ffffffffffffffffffffffffffffffffffffffff1673ffffffffffffffffffffffffffffffffffffffff161461062c57600080fd5b6000600454905060006004819055503373ffffffffffffffffffffffffffffffffffffffff166108fc829081150290604051600060405180830381858888f19350505050158015610681573d6000803e3d6000fd5b5060006004541461068e57fe5b8091505090565b7f000000000000000000000000000000000000000000000000000000000000000073ffffffffffffffffffffffffffffffffffffffff163373ffffffffffffffffffffffffffffffffffffffff1614610756576040517f08c379a000000000000000000000000000000000000000000000000000000000815260040180806020018281038252601f8152602001807f4f6e6c7920565246436f6f7264696e61746f722063616e2066756c66696c6c0081525060200191505060405180910390fd5b61076082826108f7565b5050565b60066020528060005260406000206000915090505481565b6000600660003373ffffffffffffffffffffffffffffffffffffffff1673ffffffffffffffffffffffffffffffffffffffff16815260200190815260200160002054905090565b60006003547f000000000000000000000000000000000000000000000000000000000000000073ffffffffffffffffffffffffffffffffffffffff166370a08231306040518263ffffffff1660e01b8152600401808273ffffffffffffffffffffffffffffffffffffffff16815260200191505060206040518083038186803b15801561084f57600080fd5b505afa158015610863573d6000803e3d6000fd5b505050506040513d602081101561087957600080fd5b810190808051906020019092919050505010156108e1576040517f08c379a000000000000000000000000000000000000000000000000000000000815260040180806020018281038252602b815260200180610eb6602b913960400191505060405180910390fd5b6108f060025460035484610b32565b9050919050565b6108ff610e4e565b600560008481526020019081526020016000206040518060600160405290816000820160009054906101000a900473ffffffffffffffffffffffffffffffffffffffff1673ffffffffffffffffffffffffffffffffffffffff1673ffffffffffffffffffffffffffffffffffffffff168152602001600182015481526020016002820160009054906101000a900460ff1615151515815250509050600080600284816109a757fe5b06116109b45760006109b7565b60015b9050600081151583604001511515146109d15760006109d4565b60015b90508015610a7757600060066000856000015173ffffffffffffffffffffffffffffffffffffffff1673ffffffffffffffffffffffffffffffffffffffff1681526020019081526020016000205490506002846020015102810160066000866000015173ffffffffffffffffffffffffffffffffffffffff1673ffffffffffffffffffffffffffffffffffffffff16815260200190815260200160002081905550505b7fb3ed30bc87ffe8a2d8e5d0c455f120bf85bf09df2acd7f517b39c02077ca8ca9836000015182604051808373ffffffffffffffffffffffffffffffffffffffff16815260200182151581526020019250505060405180910390a160056000868152602001908152602001600020600080820160006101000a81549073ffffffffffffffffffffffffffffffffffffffff021916905560018201600090556002820160006101000a81549060ff021916905550505050505050565b60007f000000000000000000000000000000000000000000000000000000000000000073ffffffffffffffffffffffffffffffffffffffff16634000aea07f000000000000000000000000000000000000000000000000000000000000000085878660405160200180838152602001828152602001925050506040516020818303038152906040526040518463ffffffff1660e01b8152600401808473ffffffffffffffffffffffffffffffffffffffff16815260200183815260200180602001828103825283818151815260200191508051906020019080838360005b83811015610c2b578082015181840152602081019050610c10565b50505050905090810190601f168015610c585780820380516001836020036101000a031916815260200191505b50945050505050602060405180830381600087803b158015610c7957600080fd5b505af1158015610c8d573d6000803e3d6000fd5b505050506040513d6020811015610ca357600080fd5b8101908080519060200190929190505050506000610cd6858430600160008a815260200190815260200160002054610d29565b9050610cfe600180600088815260200190815260200160002054610d8d90919063ffffffff16565b6001600087815260200190815260200160002081905550610d1f8582610e15565b9150509392505050565b600084848484604051602001808581526020018481526020018373ffffffffffffffffffffffffffffffffffffffff1681526020018281526020019450505050506040516020818303038152906040528051906020012060001c9050949350505050565b600080828401905083811015610e0b576040517f08c379a000000000000000000000000000000000000000000000000000000000815260040180806020018281038252601b8152602001807f536166654d6174683a206164646974696f6e206f766572666c6f77000000000081525060200191505060405180910390fd5b8091505092915050565b60008282604051602001808381526020018281526020019250505060405160208183030381529060405280519060200120905092915050565b6040518060600160405280600073ffffffffffffffffffffffffffffffffffffffff16815260200160008152602001600015158152509056fe43616e6e6f74207061796f7574206265636175736520706f7420686173206e6f7420656e6f756768206d6f6e65794e6f7420656e6f756768204c494e4b202d2066696c6c20636f6e74726163742077697468206661756365744e6f7420656e6f756768206574686572207761732073656e74206f6e207468652066756e6374696f6e2063616c6ca264697066735822122083b64120963f4abf8aa4ae44e8e375ba8051ae5d97e2faff7325786cc625420264736f6c634300060c0033",
  "immutableReferences": {
    "507": [
      {
        "length": 32,
        "start": 1994
      },
      {
        "length": 32,
        "start": 2870
      }
    ],
    "509": [
      {
        "length": 32,
        "start": 1687
      },
      {
        "length": 32,
        "start": 2930
      }
    ]
  },
  "source": "// SPDX-License-Identifier: GPL-3.0\nimport \"./Ownable.sol\";\nimport \"../../chainlink/evm-contracts/src/v0.6/VRFConsumerBase.sol\";\npragma solidity >=0.6.0 <0.7.0;\n//Helloworld.deployed().then(function(instance){helloworld=instance})\ncontract Cointoss is Ownable,VRFConsumerBase {\n    \n    bytes32 internal keyHash;\n    uint256 internal fee;\n    \n    uint balance;\n\n\t//Defining structure  \n    struct wager { \n        //Declaring different  \n        // structure elements \n        address payable sender; \n        uint value; \n        bool guess; \n    }\n\n    // Creating mapping \n    mapping (bytes32 => wager) private openRequests;\n    mapping (address => uint) public claims;  \n  \n  \tevent RequestedRandomNumber(bytes32 _queryId, address _address, uint _value, bool _guess);\n\tevent InitiateCoinToss(address player, uint amount, bool guess);\n\tevent ThanksForPlaying(address player, bool win);\n    event ClaimCollateral(address player, uint amount);\n\n\t constructor() \n        VRFConsumerBase(\n            0xdD3782915140c8f3b190B5D67eAc6dc5760C46E9, // VRF Coordinator\n            0xa36085F69e2889c224210F603D836748e7dC0088  // LINK Token\n        ) public\n    {\n        keyHash = 0x6c3699283bda56ad74f6b855546325b68d482e983852a7a82979cc4807b641f4;\n        fee = 0.1 * 10 ** 18; // 0.1 LINK\n        owner = msg.sender;\n        balance = 0;\n    }\n\n    modifier costs(uint cost){\n        require(msg.value >= cost, \"Not enough ether was sent on the function call\");\n        _;\n    }\n\n     /** \n     * Requests randomness from a user-provided seed\n     */\n    function getRandomNumber(uint256 userProvidedSeed) internal returns (bytes32 requestId) {\n        require(LINK.balanceOf(address(this)) >= fee, \"Not enough LINK - fill contract with faucet\");\n        return requestRandomness(keyHash, fee, userProvidedSeed);\n    }\n\n    /**\n     * Callback function used by VRF Coordinator\n     */\n    function fulfillRandomness(bytes32 requestId, uint256 randomness) internal override {\n        wager memory currentWager = openRequests[requestId];\n        bool randomResult = ((randomness % 2) > 0 ? true : false);\n        bool win = (currentWager.guess == randomResult ? true : false);\n        if (win) {\n            uint currentBalance = claims[currentWager.sender];\n        \tclaims[currentWager.sender] = currentBalance + currentWager.value * 2;\n        }\n        emit ThanksForPlaying(currentWager.sender, win);\n        delete openRequests[requestId];\n    }\n\n\n    function getPriceBalance() public view returns (uint){\n        return claims[msg.sender];\n    }\n\n    function claim() public {\n        uint claimableCollateral = claims[msg.sender];\n        require(balance >= claimableCollateral, \"Cannot payout because pot has not enough money\");\n        balance = balance - claimableCollateral;\n        msg.sender.transfer(claimableCollateral);\n        delete claims[msg.sender];\n        emit ClaimCollateral(msg.sender, claimableCollateral);\n    }\n\n\tfunction flip(bool _guess) public payable costs(0.1 ether) {\n\t\temit InitiateCoinToss(msg.sender, msg.value, _guess);\n\t\tbalance += msg.value;\n\t\tuint256 seed = uint256(msg.sender);\n\t\tbytes32  queryId = getRandomNumber(seed);\n\t\twager memory currentWager;\n\t\tcurrentWager.sender = msg.sender;\n\t\tcurrentWager.value = msg.value;\n\t\tcurrentWager.guess = _guess;\n\t\topenRequests[queryId] = currentWager;\n\t\temit RequestedRandomNumber(queryId,currentWager.sender,currentWager.value,currentWager.guess);\n\t}\n\n\n    function getBalance() public view returns (uint){\n        return balance;\n    }\n\n    function withdrawAll() public onlyOwner returns (uint){\n        uint toTransfer = balance;\n        balance = 0;\n        msg.sender.transfer(toTransfer);\n        assert(balance == 0);\n        return toTransfer;\n    }    \n}",
  "sourcePath": "/Users/dsommer/Learning/Cointoss/contracts/Cointoss.sol",
  "compiler": {
    "name": "solc",
    "version": "0.6.12+commit.27d51765.Emscripten.clang"
  },
  "schemaVersion": "3.3.2",
  "updatedAt": "2020-12-16T12:48:29.370Z",
  "networkType": "ethereum",
  "devdoc": {
    "kind": "dev",
    "methods": {},
    "version": 1
  },
  "userdoc": {
    "kind": "user",
    "methods": {},
    "version": 1
  }
}